{
  "_format": "hh-sol-artifact-1",
  "contractName": "FrontendAssessment",
  "sourceName": "contracts/FrontendAssessment.sol",
  "abi": [
    {
      "anonymous": false,
      "inputs": [
        {
          "indexed": true,
          "internalType": "address",
          "name": "sender",
          "type": "address"
        },
        {
          "indexed": false,
          "internalType": "uint256",
          "name": "num",
          "type": "uint256"
        }
      ],
      "name": "SetNumber",
      "type": "event"
    },
    {
      "anonymous": false,
      "inputs": [
        {
          "indexed": true,
          "internalType": "address",
          "name": "sender",
          "type": "address"
        },
        {
          "indexed": false,
          "internalType": "string",
          "name": "detail",
          "type": "string"
        }
      ],
      "name": "SetString",
      "type": "event"
    },
    {
      "inputs": [],
      "name": "data1",
      "outputs": [
        {
          "internalType": "uint256",
          "name": "",
          "type": "uint256"
        }
      ],
      "stateMutability": "view",
      "type": "function"
    },
    {
      "inputs": [],
      "name": "data2",
      "outputs": [
        {
          "internalType": "string",
          "name": "",
          "type": "string"
        }
      ],
      "stateMutability": "view",
      "type": "function"
    },
    {
      "inputs": [],
      "name": "getNumber",
      "outputs": [
        {
          "internalType": "uint256",
          "name": "",
          "type": "uint256"
        }
      ],
      "stateMutability": "view",
      "type": "function"
    },
    {
      "inputs": [],
      "name": "getString",
      "outputs": [
        {
          "internalType": "string",
          "name": "",
          "type": "string"
        }
      ],
      "stateMutability": "view",
      "type": "function"
    },
    {
      "inputs": [
        {
          "internalType": "uint256",
          "name": "_data",
          "type": "uint256"
        }
      ],
      "name": "setNumber",
      "outputs": [],
      "stateMutability": "nonpayable",
      "type": "function"
    },
    {
      "inputs": [
        {
          "internalType": "string",
          "name": "_data",
          "type": "string"
        }
      ],
      "name": "setString",
      "outputs": [],
      "stateMutability": "nonpayable",
      "type": "function"
    }
  ],
  "bytecode": "0x608060405234801561001057600080fd5b506108e4806100206000396000f3fe608060405234801561001057600080fd5b50600436106100625760003560e01c80633fb5c1cb146100675780637fcaf6661461008357806389ea642f1461009f5780639ffd85c4146100bd578063e3a7fd75146100db578063f2c9ecd8146100f9575b600080fd5b610081600480360381019061007c9190610349565b610117565b005b61009d600480360381019061009891906104bc565b61016f565b005b6100a76101d0565b6040516100b49190610584565b60405180910390f35b6100c5610262565b6040516100d291906105b5565b60405180910390f35b6100e3610268565b6040516100f09190610584565b60405180910390f35b6101016102f6565b60405161010e91906105b5565b60405180910390f35b806000819055503373ffffffffffffffffffffffffffffffffffffffff167f73f2f3581b2f837eb0a0b85fe0e886ca0b8bb70de4750678139d3608f54098b18260405161016491906105b5565b60405180910390a250565b806001908161017e91906107dc565b503373ffffffffffffffffffffffffffffffffffffffff167f2c21fac8b207fed93217006c80c0b4347aeb621fcf27687d1d8a182f38c61643826040516101c59190610584565b60405180910390a250565b6060600180546101df906105ff565b80601f016020809104026020016040519081016040528092919081815260200182805461020b906105ff565b80156102585780601f1061022d57610100808354040283529160200191610258565b820191906000526020600020905b81548152906001019060200180831161023b57829003601f168201915b5050505050905090565b60005481565b60018054610275906105ff565b80601f01602080910402602001604051908101604052809291908181526020018280546102a1906105ff565b80156102ee5780601f106102c3576101008083540402835291602001916102ee565b820191906000526020600020905b8154815290600101906020018083116102d157829003601f168201915b505050505081565b60008054905090565b6000604051905090565b600080fd5b600080fd5b6000819050919050565b61032681610313565b811461033157600080fd5b50565b6000813590506103438161031d565b92915050565b60006020828403121561035f5761035e610309565b5b600061036d84828501610334565b91505092915050565b600080fd5b600080fd5b6000601f19601f8301169050919050565b7f4e487b7100000000000000000000000000000000000000000000000000000000600052604160045260246000fd5b6103c982610380565b810181811067ffffffffffffffff821117156103e8576103e7610391565b5b80604052505050565b60006103fb6102ff565b905061040782826103c0565b919050565b600067ffffffffffffffff82111561042757610426610391565b5b61043082610380565b9050602081019050919050565b82818337600083830152505050565b600061045f61045a8461040c565b6103f1565b90508281526020810184848401111561047b5761047a61037b565b5b61048684828561043d565b509392505050565b600082601f8301126104a3576104a2610376565b5b81356104b384826020860161044c565b91505092915050565b6000602082840312156104d2576104d1610309565b5b600082013567ffffffffffffffff8111156104f0576104ef61030e565b5b6104fc8482850161048e565b91505092915050565b600081519050919050565b600082825260208201905092915050565b60005b8381101561053f578082015181840152602081019050610524565b60008484015250505050565b600061055682610505565b6105608185610510565b9350610570818560208601610521565b61057981610380565b840191505092915050565b6000602082019050818103600083015261059e818461054b565b905092915050565b6105af81610313565b82525050565b60006020820190506105ca60008301846105a6565b92915050565b7f4e487b7100000000000000000000000000000000000000000000000000000000600052602260045260246000fd5b6000600282049050600182168061061757607f821691505b60208210810361062a576106296105d0565b5b50919050565b60008190508160005260206000209050919050565b60006020601f8301049050919050565b600082821b905092915050565b6000600883026106927fffffffffffffffffffffffffffffffffffffffffffffffffffffffffffffffff82610655565b61069c8683610655565b95508019841693508086168417925050509392505050565b6000819050919050565b60006106d96106d46106cf84610313565b6106b4565b610313565b9050919050565b6000819050919050565b6106f3836106be565b6107076106ff826106e0565b848454610662565b825550505050565b600090565b61071c61070f565b6107278184846106ea565b505050565b5b8181101561074b57610740600082610714565b60018101905061072d565b5050565b601f8211156107905761076181610630565b61076a84610645565b81016020851015610779578190505b61078d61078585610645565b83018261072c565b50505b505050565b600082821c905092915050565b60006107b360001984600802610795565b1980831691505092915050565b60006107cc83836107a2565b9150826002028217905092915050565b6107e582610505565b67ffffffffffffffff8111156107fe576107fd610391565b5b61080882546105ff565b61081382828561074f565b600060209050601f8311600181146108465760008415610834578287015190505b61083e85826107c0565b8655506108a6565b601f19841661085486610630565b60005b8281101561087c57848901518255600182019150602085019450602081019050610857565b868310156108995784890151610895601f8916826107a2565b8355505b6001600288020188555050505b50505050505056fea264697066735822122083e702671047081d6909e3d6910e2c8ab27416ae96d349a0aa8d0847c1286fd264736f6c63430008110033",
  "linkReferences": {},
  "deployedLinkReferences": {}
}